{
  "_format": "hh3-artifact-1",
  "contractName": "StorageScore",
  "sourceName": "contracts/TournamentScore.sol",
  "abi": [
    {
      "anonymous": false,
      "inputs": [
        {
          "indexed": true,
          "internalType": "uint256",
          "name": "id",
          "type": "uint256"
        },
        {
          "indexed": false,
          "internalType": "string",
          "name": "player1",
          "type": "string"
        },
        {
          "indexed": false,
          "internalType": "string",
          "name": "player2",
          "type": "string"
        },
        {
          "indexed": false,
          "internalType": "string",
          "name": "player3",
          "type": "string"
        },
        {
          "indexed": false,
          "internalType": "string",
          "name": "player4",
          "type": "string"
        },
        {
          "indexed": false,
          "internalType": "string",
          "name": "winner",
          "type": "string"
        }
      ],
      "name": "TournamentAdded",
      "type": "event"
    },
    {
      "inputs": [
        {
          "internalType": "uint256",
          "name": "id",
          "type": "uint256"
        }
      ],
      "name": "get",
      "outputs": [
        {
          "components": [
            {
              "internalType": "uint256",
              "name": "id",
              "type": "uint256"
            },
            {
              "internalType": "string",
              "name": "player1",
              "type": "string"
            },
            {
              "internalType": "string",
              "name": "player2",
              "type": "string"
            },
            {
              "internalType": "string",
              "name": "player3",
              "type": "string"
            },
            {
              "internalType": "string",
              "name": "player4",
              "type": "string"
            },
            {
              "internalType": "uint256",
              "name": "team1",
              "type": "uint256"
            },
            {
              "internalType": "uint256",
              "name": "team2",
              "type": "uint256"
            },
            {
              "internalType": "string",
              "name": "winner",
              "type": "string"
            },
            {
              "internalType": "bool",
              "name": "exists",
              "type": "bool"
            }
          ],
          "internalType": "struct StorageScore.Score",
          "name": "",
          "type": "tuple"
        }
      ],
      "stateMutability": "view",
      "type": "function"
    },
    {
      "inputs": [
        {
          "internalType": "uint256",
          "name": "id",
          "type": "uint256"
        },
        {
          "internalType": "string",
          "name": "player1",
          "type": "string"
        },
        {
          "internalType": "string",
          "name": "player2",
          "type": "string"
        },
        {
          "internalType": "string",
          "name": "player3",
          "type": "string"
        },
        {
          "internalType": "string",
          "name": "player4",
          "type": "string"
        },
        {
          "internalType": "uint256",
          "name": "score_team1",
          "type": "uint256"
        },
        {
          "internalType": "uint256",
          "name": "score_team2",
          "type": "uint256"
        },
        {
          "internalType": "string",
          "name": "winner",
          "type": "string"
        }
      ],
      "name": "set",
      "outputs": [],
      "stateMutability": "nonpayable",
      "type": "function"
    },
    {
      "inputs": [
        {
          "internalType": "uint256",
          "name": "",
          "type": "uint256"
        }
      ],
      "name": "tournamentScore",
      "outputs": [
        {
          "internalType": "uint256",
          "name": "id",
          "type": "uint256"
        },
        {
          "internalType": "string",
          "name": "player1",
          "type": "string"
        },
        {
          "internalType": "string",
          "name": "player2",
          "type": "string"
        },
        {
          "internalType": "string",
          "name": "player3",
          "type": "string"
        },
        {
          "internalType": "string",
          "name": "player4",
          "type": "string"
        },
        {
          "internalType": "uint256",
          "name": "team1",
          "type": "uint256"
        },
        {
          "internalType": "uint256",
          "name": "team2",
          "type": "uint256"
        },
        {
          "internalType": "string",
          "name": "winner",
          "type": "string"
        },
        {
          "internalType": "bool",
          "name": "exists",
          "type": "bool"
        }
      ],
      "stateMutability": "view",
      "type": "function"
    }
  ],
  "bytecode": "0x6080604052348015600e575f5ffd5b50610dc38061001c5f395ff3fe608060405234801561000f575f5ffd5b506004361061003f575f3560e01c806337a85bc3146100435780637d4dc43b146100745780639507d39a14610089575b5f5ffd5b61005661005136600461089e565b6100a9565b60405161006b999897969594939291906108e3565b60405180910390f35b610087610082366004610a10565b610390565b005b61009c61009736600461089e565b6104d1565b60405161006b9190610b0f565b5f60208190529081526040902080546001820180549192916100ca90610be2565b80601f01602080910402602001604051908101604052809291908181526020018280546100f690610be2565b80156101415780601f1061011857610100808354040283529160200191610141565b820191905f5260205f20905b81548152906001019060200180831161012457829003601f168201915b50505050509080600201805461015690610be2565b80601f016020809104026020016040519081016040528092919081815260200182805461018290610be2565b80156101cd5780601f106101a4576101008083540402835291602001916101cd565b820191905f5260205f20905b8154815290600101906020018083116101b057829003601f168201915b5050505050908060030180546101e290610be2565b80601f016020809104026020016040519081016040528092919081815260200182805461020e90610be2565b80156102595780601f1061023057610100808354040283529160200191610259565b820191905f5260205f20905b81548152906001019060200180831161023c57829003601f168201915b50505050509080600401805461026e90610be2565b80601f016020809104026020016040519081016040528092919081815260200182805461029a90610be2565b80156102e55780601f106102bc576101008083540402835291602001916102e5565b820191905f5260205f20905b8154815290600101906020018083116102c857829003601f168201915b50505050509080600501549080600601549080600701805461030690610be2565b80601f016020809104026020016040519081016040528092919081815260200182805461033290610be2565b801561037d5780601f106103545761010080835404028352916020019161037d565b820191905f5260205f20905b81548152906001019060200180831161036057829003601f168201915b5050506008909301549192505060ff1689565b604051806101200160405280898152602001888152602001878152602001868152602001858152602001848152602001838152602001828152602001600115158152505f5f8a81526020019081526020015f205f820151815f015560208201518160010190816104009190610c66565b50604082015160028201906104159082610c66565b506060820151600382019061042a9082610c66565b506080820151600482019061043f9082610c66565b5060a0820151600582015560c0820151600682015560e082015160078201906104689082610c66565b5061010091909101516008909101805460ff191691151591909117905560405188907fed494229e563c1f9145c4ae88ec112e013eff5f3bae7f0f882ef860b259aacaf906104bf908a908a908a908a908890610d21565b60405180910390a25050505050505050565b61051e6040518061012001604052805f8152602001606081526020016060815260200160608152602001606081526020015f81526020015f8152602001606081526020015f151581525090565b5f8281526020819052604090206008015460ff166105825760405162461bcd60e51b815260206004820152601a60248201527f546f75726e616d656e7420646f6573206e6f7420657869737421000000000000604482015260640160405180910390fd5b5f8281526020818152604091829020825161012081019093528054835260018101805491928401916105b390610be2565b80601f01602080910402602001604051908101604052809291908181526020018280546105df90610be2565b801561062a5780601f106106015761010080835404028352916020019161062a565b820191905f5260205f20905b81548152906001019060200180831161060d57829003601f168201915b5050505050815260200160028201805461064390610be2565b80601f016020809104026020016040519081016040528092919081815260200182805461066f90610be2565b80156106ba5780601f10610691576101008083540402835291602001916106ba565b820191905f5260205f20905b81548152906001019060200180831161069d57829003601f168201915b505050505081526020016003820180546106d390610be2565b80601f01602080910402602001604051908101604052809291908181526020018280546106ff90610be2565b801561074a5780601f106107215761010080835404028352916020019161074a565b820191905f5260205f20905b81548152906001019060200180831161072d57829003601f168201915b5050505050815260200160048201805461076390610be2565b80601f016020809104026020016040519081016040528092919081815260200182805461078f90610be2565b80156107da5780601f106107b1576101008083540402835291602001916107da565b820191905f5260205f20905b8154815290600101906020018083116107bd57829003601f168201915b50505050508152602001600582015481526020016006820154815260200160078201805461080790610be2565b80601f016020809104026020016040519081016040528092919081815260200182805461083390610be2565b801561087e5780601f106108555761010080835404028352916020019161087e565b820191905f5260205f20905b81548152906001019060200180831161086157829003601f168201915b50505091835250506008919091015460ff16151560209091015292915050565b5f602082840312156108ae575f5ffd5b5035919050565b5f81518084528060208401602086015e5f602082860101526020601f19601f83011685010191505092915050565b89815261012060208201525f6108fd61012083018b6108b5565b828103604084015261090f818b6108b5565b90508281036060840152610923818a6108b5565b9050828103608084015261093781896108b5565b90508660a08401528560c084015282810360e084015261095781866108b5565b9150508215156101008301529a9950505050505050505050565b634e487b7160e01b5f52604160045260245ffd5b5f82601f830112610994575f5ffd5b813567ffffffffffffffff8111156109ae576109ae610971565b604051601f8201601f19908116603f0116810167ffffffffffffffff811182821017156109dd576109dd610971565b6040528181528382016020018510156109f4575f5ffd5b816020850160208301375f918101602001919091529392505050565b5f5f5f5f5f5f5f5f610100898b031215610a28575f5ffd5b88359750602089013567ffffffffffffffff811115610a45575f5ffd5b610a518b828c01610985565b975050604089013567ffffffffffffffff811115610a6d575f5ffd5b610a798b828c01610985565b965050606089013567ffffffffffffffff811115610a95575f5ffd5b610aa18b828c01610985565b955050608089013567ffffffffffffffff811115610abd575f5ffd5b610ac98b828c01610985565b94505060a0890135925060c0890135915060e089013567ffffffffffffffff811115610af3575f5ffd5b610aff8b828c01610985565b9150509295985092959890939650565b60208152815160208201525f60208301516101206040840152610b366101408401826108b5565b90506040840151601f19848303016060850152610b5382826108b5565b9150506060840151601f19848303016080850152610b7182826108b5565b9150506080840151601f198483030160a0850152610b8f82826108b5565b91505060a084015160c084015260c084015160e084015260e0840151601f1984830301610100850152610bc282826108b5565b915050610100840151610bda61012085018215159052565b509392505050565b600181811c90821680610bf657607f821691505b602082108103610c1457634e487b7160e01b5f52602260045260245ffd5b50919050565b601f821115610c6157805f5260205f20601f840160051c81016020851015610c3f5750805b601f840160051c820191505b81811015610c5e575f8155600101610c4b565b50505b505050565b815167ffffffffffffffff811115610c8057610c80610971565b610c9481610c8e8454610be2565b84610c1a565b6020601f821160018114610cc6575f8315610caf5750848201515b5f19600385901b1c1916600184901b178455610c5e565b5f84815260208120601f198516915b82811015610cf55787850151825560209485019460019092019101610cd5565b5084821015610d1257868401515f19600387901b60f8161c191681555b50505050600190811b01905550565b60a081525f610d3360a08301886108b5565b8281036020840152610d4581886108b5565b90508281036040840152610d5981876108b5565b90508281036060840152610d6d81866108b5565b90508281036080840152610d8181856108b5565b9897505050505050505056fea2646970667358221220568e5efceb2ee983e38dd01f618e883938da75c291262ef8f45ef937be65ddc664736f6c634300081c0033",
  "linkReferences": {},
  "deployedLinkReferences": {},
  "immutableReferences": {},
  "inputSourceName": "project/contracts/TournamentScore.sol",
  "buildInfoId": "solc-0_8_28-2a0eaf7c61e16b7710dbe27636f628541afb5a69"
}