{
  "_format": "hh3-artifact-1",
  "contractName": "StorageScore",
  "sourceName": "contracts/TournamentScore.sol",
  "abi": [
    {
      "anonymous": false,
      "inputs": [
        {
          "indexed": true,
          "internalType": "uint256",
          "name": "id",
          "type": "uint256"
        },
        {
          "indexed": false,
          "internalType": "string",
          "name": "player1",
          "type": "string"
        },
        {
          "indexed": false,
          "internalType": "string",
          "name": "player2",
          "type": "string"
        },
        {
          "indexed": false,
          "internalType": "string",
          "name": "player3",
          "type": "string"
        },
        {
          "indexed": false,
          "internalType": "string",
          "name": "player4",
          "type": "string"
        },
        {
          "indexed": false,
          "internalType": "string",
          "name": "winner",
          "type": "string"
        }
      ],
      "name": "TournamentAdded",
      "type": "event"
    },
    {
      "inputs": [
        {
          "internalType": "uint256",
          "name": "id",
          "type": "uint256"
        }
      ],
      "name": "get",
      "outputs": [
        {
          "components": [
            {
              "internalType": "uint256",
              "name": "id",
              "type": "uint256"
            },
            {
              "internalType": "string",
              "name": "player1",
              "type": "string"
            },
            {
              "internalType": "string",
              "name": "player2",
              "type": "string"
            },
            {
              "internalType": "string",
              "name": "player3",
              "type": "string"
            },
            {
              "internalType": "string",
              "name": "player4",
              "type": "string"
            },
            {
              "internalType": "uint256",
              "name": "team1",
              "type": "uint256"
            },
            {
              "internalType": "uint256",
              "name": "team2",
              "type": "uint256"
            },
            {
              "internalType": "string",
              "name": "winner",
              "type": "string"
            },
            {
              "internalType": "bool",
              "name": "exists",
              "type": "bool"
            }
          ],
          "internalType": "struct StorageScore.Score",
          "name": "",
          "type": "tuple"
        }
      ],
      "stateMutability": "view",
      "type": "function"
    },
    {
      "inputs": [
        {
          "internalType": "uint256",
          "name": "id",
          "type": "uint256"
        },
        {
          "internalType": "string",
          "name": "player1",
          "type": "string"
        },
        {
          "internalType": "string",
          "name": "player2",
          "type": "string"
        },
        {
          "internalType": "string",
          "name": "player3",
          "type": "string"
        },
        {
          "internalType": "string",
          "name": "player4",
          "type": "string"
        },
        {
          "internalType": "uint256",
          "name": "score_team1",
          "type": "uint256"
        },
        {
          "internalType": "uint256",
          "name": "score_team2",
          "type": "uint256"
        },
        {
          "internalType": "string",
          "name": "winner",
          "type": "string"
        }
      ],
      "name": "set",
      "outputs": [],
      "stateMutability": "nonpayable",
      "type": "function"
    },
    {
      "inputs": [
        {
          "internalType": "uint256",
          "name": "",
          "type": "uint256"
        }
      ],
      "name": "tournamentScore",
      "outputs": [
        {
          "internalType": "uint256",
          "name": "id",
          "type": "uint256"
        },
        {
          "internalType": "string",
          "name": "player1",
          "type": "string"
        },
        {
          "internalType": "string",
          "name": "player2",
          "type": "string"
        },
        {
          "internalType": "string",
          "name": "player3",
          "type": "string"
        },
        {
          "internalType": "string",
          "name": "player4",
          "type": "string"
        },
        {
          "internalType": "uint256",
          "name": "team1",
          "type": "uint256"
        },
        {
          "internalType": "uint256",
          "name": "team2",
          "type": "uint256"
        },
        {
          "internalType": "string",
          "name": "winner",
          "type": "string"
        },
        {
          "internalType": "bool",
          "name": "exists",
          "type": "bool"
        }
      ],
      "stateMutability": "view",
      "type": "function"
    }
  ],
  "bytecode": "0x6080604052348015600e575f5ffd5b506112408061001c5f395ff3fe608060405234801561000f575f5ffd5b506004361061003f575f3560e01c806337a85bc3146100435780637d4dc43b1461007b5780639507d39a14610097575b5f5ffd5b61005d60048036038101906100589190610923565b6100c7565b604051610072999897969594939291906109e7565b60405180910390f35b61009560048036038101906100909190610bc1565b6103ba565b005b6100b160048036038101906100ac9190610923565b610504565b6040516100be9190610e42565b60405180910390f35b5f602052805f5260405f205f91509050805f0154908060010180546100eb90610e8f565b80601f016020809104026020016040519081016040528092919081815260200182805461011790610e8f565b80156101625780601f1061013957610100808354040283529160200191610162565b820191905f5260205f20905b81548152906001019060200180831161014557829003601f168201915b50505050509080600201805461017790610e8f565b80601f01602080910402602001604051908101604052809291908181526020018280546101a390610e8f565b80156101ee5780601f106101c5576101008083540402835291602001916101ee565b820191905f5260205f20905b8154815290600101906020018083116101d157829003601f168201915b50505050509080600301805461020390610e8f565b80601f016020809104026020016040519081016040528092919081815260200182805461022f90610e8f565b801561027a5780601f106102515761010080835404028352916020019161027a565b820191905f5260205f20905b81548152906001019060200180831161025d57829003601f168201915b50505050509080600401805461028f90610e8f565b80601f01602080910402602001604051908101604052809291908181526020018280546102bb90610e8f565b80156103065780601f106102dd57610100808354040283529160200191610306565b820191905f5260205f20905b8154815290600101906020018083116102e957829003601f168201915b50505050509080600501549080600601549080600701805461032790610e8f565b80601f016020809104026020016040519081016040528092919081815260200182805461035390610e8f565b801561039e5780601f106103755761010080835404028352916020019161039e565b820191905f5260205f20905b81548152906001019060200180831161038157829003601f168201915b505050505090806008015f9054906101000a900460ff16905089565b604051806101200160405280898152602001888152602001878152602001868152602001858152602001848152602001838152602001828152602001600115158152505f5f8a81526020019081526020015f205f820151815f0155602082015181600101908161042a919061105f565b506040820151816002019081610440919061105f565b506060820151816003019081610456919061105f565b50608082015181600401908161046c919061105f565b5060a0820151816005015560c0820151816006015560e0820151816007019081610496919061105f565b50610100820151816008015f6101000a81548160ff021916908315150217905550905050877fed494229e563c1f9145c4ae88ec112e013eff5f3bae7f0f882ef860b259aacaf88888888866040516104f295949392919061112e565b60405180910390a25050505050505050565b61050c610895565b5f5f8381526020019081526020015f206008015f9054906101000a900460ff1661056b576040517f08c379a0000000000000000000000000000000000000000000000000000000008152600401610562906111ec565b60405180910390fd5b5f5f8381526020019081526020015f20604051806101200160405290815f82015481526020016001820180546105a090610e8f565b80601f01602080910402602001604051908101604052809291908181526020018280546105cc90610e8f565b80156106175780601f106105ee57610100808354040283529160200191610617565b820191905f5260205f20905b8154815290600101906020018083116105fa57829003601f168201915b5050505050815260200160028201805461063090610e8f565b80601f016020809104026020016040519081016040528092919081815260200182805461065c90610e8f565b80156106a75780601f1061067e576101008083540402835291602001916106a7565b820191905f5260205f20905b81548152906001019060200180831161068a57829003601f168201915b505050505081526020016003820180546106c090610e8f565b80601f01602080910402602001604051908101604052809291908181526020018280546106ec90610e8f565b80156107375780601f1061070e57610100808354040283529160200191610737565b820191905f5260205f20905b81548152906001019060200180831161071a57829003601f168201915b5050505050815260200160048201805461075090610e8f565b80601f016020809104026020016040519081016040528092919081815260200182805461077c90610e8f565b80156107c75780601f1061079e576101008083540402835291602001916107c7565b820191905f5260205f20905b8154815290600101906020018083116107aa57829003601f168201915b5050505050815260200160058201548152602001600682015481526020016007820180546107f490610e8f565b80601f016020809104026020016040519081016040528092919081815260200182805461082090610e8f565b801561086b5780601f106108425761010080835404028352916020019161086b565b820191905f5260205f20905b81548152906001019060200180831161084e57829003601f168201915b50505050508152602001600882015f9054906101000a900460ff1615151515815250509050919050565b6040518061012001604052805f8152602001606081526020016060815260200160608152602001606081526020015f81526020015f8152602001606081526020015f151581525090565b5f604051905090565b5f5ffd5b5f5ffd5b5f819050919050565b610902816108f0565b811461090c575f5ffd5b50565b5f8135905061091d816108f9565b92915050565b5f60208284031215610938576109376108e8565b5b5f6109458482850161090f565b91505092915050565b610957816108f0565b82525050565b5f81519050919050565b5f82825260208201905092915050565b8281835e5f83830152505050565b5f601f19601f8301169050919050565b5f61099f8261095d565b6109a98185610967565b93506109b9818560208601610977565b6109c281610985565b840191505092915050565b5f8115159050919050565b6109e1816109cd565b82525050565b5f610120820190506109fb5f83018c61094e565b8181036020830152610a0d818b610995565b90508181036040830152610a21818a610995565b90508181036060830152610a358189610995565b90508181036080830152610a498188610995565b9050610a5860a083018761094e565b610a6560c083018661094e565b81810360e0830152610a778185610995565b9050610a876101008301846109d8565b9a9950505050505050505050565b5f5ffd5b5f5ffd5b7f4e487b71000000000000000000000000000000000000000000000000000000005f52604160045260245ffd5b610ad382610985565b810181811067ffffffffffffffff82111715610af257610af1610a9d565b5b80604052505050565b5f610b046108df565b9050610b108282610aca565b919050565b5f67ffffffffffffffff821115610b2f57610b2e610a9d565b5b610b3882610985565b9050602081019050919050565b828183375f83830152505050565b5f610b65610b6084610b15565b610afb565b905082815260208101848484011115610b8157610b80610a99565b5b610b8c848285610b45565b509392505050565b5f82601f830112610ba857610ba7610a95565b5b8135610bb8848260208601610b53565b91505092915050565b5f5f5f5f5f5f5f5f610100898b031215610bde57610bdd6108e8565b5b5f610beb8b828c0161090f565b985050602089013567ffffffffffffffff811115610c0c57610c0b6108ec565b5b610c188b828c01610b94565b975050604089013567ffffffffffffffff811115610c3957610c386108ec565b5b610c458b828c01610b94565b965050606089013567ffffffffffffffff811115610c6657610c656108ec565b5b610c728b828c01610b94565b955050608089013567ffffffffffffffff811115610c9357610c926108ec565b5b610c9f8b828c01610b94565b94505060a0610cb08b828c0161090f565b93505060c0610cc18b828c0161090f565b92505060e089013567ffffffffffffffff811115610ce257610ce16108ec565b5b610cee8b828c01610b94565b9150509295985092959890939650565b610d07816108f0565b82525050565b5f82825260208201905092915050565b5f610d278261095d565b610d318185610d0d565b9350610d41818560208601610977565b610d4a81610985565b840191505092915050565b610d5e816109cd565b82525050565b5f61012083015f830151610d7a5f860182610cfe565b5060208301518482036020860152610d928282610d1d565b91505060408301518482036040860152610dac8282610d1d565b91505060608301518482036060860152610dc68282610d1d565b91505060808301518482036080860152610de08282610d1d565b91505060a0830151610df560a0860182610cfe565b5060c0830151610e0860c0860182610cfe565b5060e083015184820360e0860152610e208282610d1d565b915050610100830151610e37610100860182610d55565b508091505092915050565b5f6020820190508181035f830152610e5a8184610d64565b905092915050565b7f4e487b71000000000000000000000000000000000000000000000000000000005f52602260045260245ffd5b5f6002820490506001821680610ea657607f821691505b602082108103610eb957610eb8610e62565b5b50919050565b5f819050815f5260205f209050919050565b5f6020601f8301049050919050565b5f82821b905092915050565b5f60088302610f1b7fffffffffffffffffffffffffffffffffffffffffffffffffffffffffffffffff82610ee0565b610f258683610ee0565b95508019841693508086168417925050509392505050565b5f819050919050565b5f610f60610f5b610f56846108f0565b610f3d565b6108f0565b9050919050565b5f819050919050565b610f7983610f46565b610f8d610f8582610f67565b848454610eec565b825550505050565b5f5f905090565b610fa4610f95565b610faf818484610f70565b505050565b5b81811015610fd257610fc75f82610f9c565b600181019050610fb5565b5050565b601f82111561101757610fe881610ebf565b610ff184610ed1565b81016020851015611000578190505b61101461100c85610ed1565b830182610fb4565b50505b505050565b5f82821c905092915050565b5f6110375f198460080261101c565b1980831691505092915050565b5f61104f8383611028565b9150826002028217905092915050565b6110688261095d565b67ffffffffffffffff81111561108157611080610a9d565b5b61108b8254610e8f565b611096828285610fd6565b5f60209050601f8311600181146110c7575f84156110b5578287015190505b6110bf8582611044565b865550611126565b601f1984166110d586610ebf565b5f5b828110156110fc578489015182556001820191506020850194506020810190506110d7565b868310156111195784890151611115601f891682611028565b8355505b6001600288020188555050505b505050505050565b5f60a0820190508181035f8301526111468188610995565b9050818103602083015261115a8187610995565b9050818103604083015261116e8186610995565b905081810360608301526111828185610995565b905081810360808301526111968184610995565b90509695505050505050565b7f546f75726e616d656e7420646f6573206e6f74206578697374210000000000005f82015250565b5f6111d6601a83610967565b91506111e1826111a2565b602082019050919050565b5f6020820190508181035f830152611203816111ca565b905091905056fea2646970667358221220792e1260078ba958eb9a2e21b093d561dfaa4a58767070807fcbf929591370dd64736f6c634300081c0033",
  "linkReferences": {},
  "deployedLinkReferences": {},
  "immutableReferences": {},
  "inputSourceName": "project/contracts/TournamentScore.sol",
  "buildInfoId": "solc-0_8_28-487234bc59764f7d490af7571493c8671445ea8a"
}